:0400000002010032C7
:03000B0002019C53
:0100130032BA
:01001B0032B2
:0100230032AA
:100100001281087520007521007522007523007585
:10011000241475250012016D758901758A00758C8E
:100120004CD2A9D2AFD28C12811CB40E056323012C
:1001300080F5B40F10752000752100752200C2955E
:1001400012016D80E2B40C11E521B43B057521006C
:10015000801B052112016D80CEB40BCBE520B40DC0
:10016000057520018007052012016D80BA12810CEF
:10017000E520120202743A1201DAE5211202027439
:100180003A1201DAE522120202E525B52002800BBF
:10019000E520B40C02B297E520F52522758C4CC001
:1001A000D0C0E0E8C0E0E5236028D52425752414FC
:1001B000E52204F522B43C177522000521E521B49F
:1001C0003C0D7521000520E520B40D0375200112BA
:1001D000016DD0E0F8D0E0D0D0321201EEC0E0C026
:1001E00082C08390FF81F0D083D082D0E022C0E033
:1001F000C083C08290FF82E020E7FCD083D082D011
:10020000E022C0E0C0F075F00A8424301201DAE583
:0B021000F024301201DAD0F0D0E02220
:00000001FF
